{
  "contractName": "SocialMedia",
  "abi": [
    {
      "anonymous": false,
      "inputs": [
        {
          "indexed": false,
          "internalType": "uint256",
          "name": "id",
          "type": "uint256"
        },
        {
          "indexed": false,
          "internalType": "address",
          "name": "author",
          "type": "address"
        },
        {
          "indexed": false,
          "internalType": "string",
          "name": "content",
          "type": "string"
        },
        {
          "indexed": false,
          "internalType": "uint256",
          "name": "likes",
          "type": "uint256"
        }
      ],
      "name": "PostCreated",
      "type": "event"
    },
    {
      "anonymous": false,
      "inputs": [
        {
          "indexed": false,
          "internalType": "uint256",
          "name": "id",
          "type": "uint256"
        },
        {
          "indexed": false,
          "internalType": "address",
          "name": "liker",
          "type": "address"
        },
        {
          "indexed": false,
          "internalType": "uint256",
          "name": "likes",
          "type": "uint256"
        }
      ],
      "name": "PostLiked",
      "type": "event"
    },
    {
      "inputs": [],
      "name": "postCount",
      "outputs": [
        {
          "internalType": "uint256",
          "name": "",
          "type": "uint256"
        }
      ],
      "stateMutability": "view",
      "type": "function",
      "constant": true
    },
    {
      "inputs": [
        {
          "internalType": "uint256",
          "name": "",
          "type": "uint256"
        }
      ],
      "name": "posts",
      "outputs": [
        {
          "internalType": "uint256",
          "name": "id",
          "type": "uint256"
        },
        {
          "internalType": "address payable",
          "name": "author",
          "type": "address"
        },
        {
          "internalType": "string",
          "name": "content",
          "type": "string"
        },
        {
          "internalType": "uint256",
          "name": "likes",
          "type": "uint256"
        }
      ],
      "stateMutability": "view",
      "type": "function",
      "constant": true
    },
    {
      "inputs": [
        {
          "internalType": "address",
          "name": "",
          "type": "address"
        }
      ],
      "name": "rewards",
      "outputs": [
        {
          "internalType": "uint256",
          "name": "",
          "type": "uint256"
        }
      ],
      "stateMutability": "view",
      "type": "function",
      "constant": true
    },
    {
      "inputs": [
        {
          "internalType": "string",
          "name": "_content",
          "type": "string"
        }
      ],
      "name": "createPost",
      "outputs": [],
      "stateMutability": "nonpayable",
      "type": "function"
    },
    {
      "inputs": [
        {
          "internalType": "uint256",
          "name": "_id",
          "type": "uint256"
        }
      ],
      "name": "likePost",
      "outputs": [],
      "stateMutability": "nonpayable",
      "type": "function"
    },
    {
      "inputs": [],
      "name": "getRewardBalance",
      "outputs": [
        {
          "internalType": "uint256",
          "name": "",
          "type": "uint256"
        }
      ],
      "stateMutability": "view",
      "type": "function",
      "constant": true
    },
    {
      "inputs": [],
      "name": "withdrawRewards",
      "outputs": [],
      "stateMutability": "nonpayable",
      "type": "function"
    },
    {
      "inputs": [
        {
          "internalType": "address",
          "name": "_user",
          "type": "address"
        },
        {
          "internalType": "uint256",
          "name": "_amount",
          "type": "uint256"
        }
      ],
      "name": "addReward",
      "outputs": [],
      "stateMutability": "nonpayable",
      "type": "function"
    },
    {
      "inputs": [],
      "name": "fundContract",
      "outputs": [],
      "stateMutability": "payable",
      "type": "function",
      "payable": true
    }
  ],
  "bytecode": "0x608060405234801561001057600080fd5b50610e3c806100206000396000f3fe6080604052600436106100865760003560e01c8063725009d311610059578063725009d31461015e5780639feb8f5014610187578063bd097e21146101b0578063c7303c61146101ba578063c7b8981c146101e357610086565b80630700037d1461008b5780630b1e7f83146100c857806317906c2e146101085780635e42b45514610133575b600080fd5b34801561009757600080fd5b506100b260048036038101906100ad9190610836565b6101fa565b6040516100bf9190610a60565b60405180910390f35b3480156100d457600080fd5b506100ef60048036038101906100ea91906108dc565b610212565b6040516100ff9493929190610a7b565b60405180910390f35b34801561011457600080fd5b5061011d6102ea565b60405161012a9190610a60565b60405180910390f35b34801561013f57600080fd5b506101486102f0565b6040516101559190610a60565b60405180910390f35b34801561016a57600080fd5b50610185600480360381019061018091906108dc565b610337565b005b34801561019357600080fd5b506101ae60048036038101906101a9919061085f565b61046b565b005b6101b86104c5565b005b3480156101c657600080fd5b506101e160048036038101906101dc919061089b565b6104c7565b005b3480156101ef57600080fd5b506101f86105eb565b005b60016020528060005260406000206000915090505481565b60006020528060005260406000206000915090508060000154908060010160009054906101000a900473ffffffffffffffffffffffffffffffffffffffff169080600201805461026190610cbf565b80601f016020809104026020016040519081016040528092919081815260200182805461028d90610cbf565b80156102da5780601f106102af576101008083540402835291602001916102da565b820191906000526020600020905b8154815290600101906020018083116102bd57829003601f168201915b5050505050908060030154905084565b60025481565b6000600160003373ffffffffffffffffffffffffffffffffffffffff1673ffffffffffffffffffffffffffffffffffffffff16815260200190815260200160002054905090565b600080600083815260200190815260200160002090506000816000015411610394576040517f08c379a000000000000000000000000000000000000000000000000000000000815260040161038b90610a40565b60405180910390fd5b8060030160008154809291906103a990610cf1565b919050555060018060008360010160009054906101000a900473ffffffffffffffffffffffffffffffffffffffff1673ffffffffffffffffffffffffffffffffffffffff1673ffffffffffffffffffffffffffffffffffffffff16815260200190815260200160002060008282546104219190610bc7565b925050819055507fdfb8e3561bacb6caea7f0960d425956921b9147a631b6e857325c39911ee7e3b8233836003015460405161045f93929190610b13565b60405180910390a15050565b80600160008473ffffffffffffffffffffffffffffffffffffffff1673ffffffffffffffffffffffffffffffffffffffff16815260200190815260200160002060008282546104ba9190610bc7565b925050819055505050565b565b600260008154809291906104da90610cf1565b9190505550604051806080016040528060025481526020013373ffffffffffffffffffffffffffffffffffffffff168152602001828152602001600081525060008060025481526020019081526020016000206000820151816000015560208201518160010160006101000a81548173ffffffffffffffffffffffffffffffffffffffff021916908373ffffffffffffffffffffffffffffffffffffffff160217905550604082015181600201908051906020019061059a929190610701565b50606082015181600301559050507f285db98a4632176385795ddf0d2b67cef1a21f47eb2f5d06f786ab6b5147e200600254338360006040516105e09493929190610ac7565b60405180910390a150565b6000600160003373ffffffffffffffffffffffffffffffffffffffff1673ffffffffffffffffffffffffffffffffffffffff16815260200190815260200160002054905060008111610672576040517f08c379a000000000000000000000000000000000000000000000000000000000815260040161066990610a20565b60405180910390fd5b6000600160003373ffffffffffffffffffffffffffffffffffffffff1673ffffffffffffffffffffffffffffffffffffffff168152602001908152602001600020819055503373ffffffffffffffffffffffffffffffffffffffff166108fc829081150290604051600060405180830381858888f193505050501580156106fd573d6000803e3d6000fd5b5050565b82805461070d90610cbf565b90600052602060002090601f01602090048101928261072f5760008555610776565b82601f1061074857805160ff1916838001178555610776565b82800160010185558215610776579182015b8281111561077557825182559160200191906001019061075a565b5b5090506107839190610787565b5090565b5b808211156107a0576000816000905550600101610788565b5090565b60006107b76107b284610b7b565b610b4a565b9050828152602081018484840111156107cf57600080fd5b6107da848285610c7d565b509392505050565b6000813590506107f181610dd8565b92915050565b600082601f83011261080857600080fd5b81356108188482602086016107a4565b91505092915050565b60008135905061083081610def565b92915050565b60006020828403121561084857600080fd5b6000610856848285016107e2565b91505092915050565b6000806040838503121561087257600080fd5b6000610880858286016107e2565b925050602061089185828601610821565b9150509250929050565b6000602082840312156108ad57600080fd5b600082013567ffffffffffffffff8111156108c757600080fd5b6108d3848285016107f7565b91505092915050565b6000602082840312156108ee57600080fd5b60006108fc84828501610821565b91505092915050565b61090e81610c2f565b82525050565b61091d81610c1d565b82525050565b61092c81610c6b565b82525050565b600061093d82610bab565b6109478185610bb6565b9350610957818560208601610c8c565b61096081610dc7565b840191505092915050565b6000610978602883610bb6565b91507f4e656e68756d61207265636f6d70656e736120646973706f6e6976656c20706160008301527f72612073617175650000000000000000000000000000000000000000000000006020830152604082019050919050565b60006109de600f83610bb6565b91507f506f7374206e616f2065786973746500000000000000000000000000000000006000830152602082019050919050565b610a1a81610c61565b82525050565b60006020820190508181036000830152610a398161096b565b9050919050565b60006020820190508181036000830152610a59816109d1565b9050919050565b6000602082019050610a756000830184610a11565b92915050565b6000608082019050610a906000830187610a11565b610a9d6020830186610905565b8181036040830152610aaf8185610932565b9050610abe6060830184610a11565b95945050505050565b6000608082019050610adc6000830187610a11565b610ae96020830186610914565b8181036040830152610afb8185610932565b9050610b0a6060830184610923565b95945050505050565b6000606082019050610b286000830186610a11565b610b356020830185610914565b610b426040830184610a11565b949350505050565b6000604051905081810181811067ffffffffffffffff82111715610b7157610b70610d98565b5b8060405250919050565b600067ffffffffffffffff821115610b9657610b95610d98565b5b601f19601f8301169050602081019050919050565b600081519050919050565b600082825260208201905092915050565b6000610bd282610c61565b9150610bdd83610c61565b9250827fffffffffffffffffffffffffffffffffffffffffffffffffffffffffffffffff03821115610c1257610c11610d3a565b5b828201905092915050565b6000610c2882610c41565b9050919050565b6000610c3a82610c41565b9050919050565b600073ffffffffffffffffffffffffffffffffffffffff82169050919050565b6000819050919050565b6000610c7682610c61565b9050919050565b82818337600083830152505050565b60005b83811015610caa578082015181840152602081019050610c8f565b83811115610cb9576000848401525b50505050565b60006002820490506001821680610cd757607f821691505b60208210811415610ceb57610cea610d69565b5b50919050565b6000610cfc82610c61565b91507fffffffffffffffffffffffffffffffffffffffffffffffffffffffffffffffff821415610d2f57610d2e610d3a565b5b600182019050919050565b7f4e487b7100000000000000000000000000000000000000000000000000000000600052601160045260246000fd5b7f4e487b7100000000000000000000000000000000000000000000000000000000600052602260045260246000fd5b7f4e487b7100000000000000000000000000000000000000000000000000000000600052604160045260246000fd5b6000601f19601f8301169050919050565b610de181610c1d565b8114610dec57600080fd5b50565b610df881610c61565b8114610e0357600080fd5b5056fea26469706673582212209fd5d9175ff57eaeb79fcbc3dcaf6c005d3c76baa2dfea3e5ada6b9bea44e98f64736f6c63430008000033",
  "immutableReferences": {},
  "source": "// SPDX-License-Identifier: MIT\npragma solidity ^0.8.0;\n\ncontract SocialMedia {\n    struct Post {\n        uint256 id;\n        address payable author;\n        string content;\n        uint256 likes;\n    }\n\n    mapping(uint256 => Post) public posts;\n    mapping(address => uint256) public rewards;\n    uint256 public postCount;\n\n    event PostCreated(uint256 id, address author, string content, uint256 likes);\n    event PostLiked(uint256 id, address liker, uint256 likes);\n\n    // Criao de post\n    function createPost(string memory _content) public {\n        postCount++;\n        posts[postCount] = Post(postCount, payable(msg.sender), _content, 0);\n        emit PostCreated(postCount, msg.sender, _content, 0);\n    }\n\n    // Curtir post\n    function likePost(uint256 _id) public {\n        Post storage post = posts[_id];\n        require(post.id > 0, \"Post nao existe\");\n\n        post.likes++;\n        rewards[post.author] += 1 wei; // Adiciona uma recompensa mnima para cada curtida\n        emit PostLiked(_id, msg.sender, post.likes);\n    }\n\n    // Verificar saldo de recompensas\n    function getRewardBalance() public view returns (uint256) {\n        return rewards[msg.sender];\n    }\n\n    // Sacar recompensas\n    function withdrawRewards() public {\n        uint256 reward = rewards[msg.sender];\n        require(reward > 0, \"Nenhuma recompensa disponivel para saque\");\n        rewards[msg.sender] = 0;\n        payable(msg.sender).transfer(reward);\n    }\n\n    // Funo de teste para adicionar recompensas manualmente (apenas para ambiente de teste)\n    function addReward(address _user, uint256 _amount) public {\n        rewards[_user] += _amount;\n    }\n\n    // Funo para financiar o contrato\n    function fundContract() public payable {}\n}\n",
  "sourcePath": "/home/gabrielasandanieli/Documentos/blockchain-social-media/contracts/SocialMedia.sol",
  "compiler": {
    "name": "solc",
    "version": "0.8.0+commit.c7dfd78e.Emscripten.clang"
  },
  "schemaVersion": "3.4.16",
  "updatedAt": "2024-11-10T02:38:17.086Z",
  "networkType": "ethereum",
  "devdoc": {
    "kind": "dev",
    "methods": {},
    "version": 1
  },
  "userdoc": {
    "kind": "user",
    "methods": {},
    "version": 1
  }
}